:020000040800F2
:1000000068070020CD010008C90600088704000821
:10001000C50600087D0200088711000800000000E6
:10002000000000000000000000000000650C000857
:10003000D502000800000000CB060008330E0008BF
:1000400099110008E7010008E7010008E70100082E
:10005000E7010008E7010008E7010008E7010008E0
:10006000E7010008E7010008E7010008E7010008D0
:10007000E7010008E7010008E7010008E7010008C0
:10008000E7010008E7010008E7010008E7010008B0
:10009000E7010008E7010008E7010008E7010008A0
:1000A000E7010008E7010008E7010008E701000890
:1000B000E7010008E7010008E7010008E701000880
:1000C000E7010008E7010008E7010008E701000870
:1000D000E7010008110F0008E7010008E701000828
:1000E000E7010008E7010008E7010008E701000850
:1000F000E7010008E7010008E7010008E701000840
:10010000E7010008E7010008E7010008E70100082F
:10011000E7010008E7010008E7010008E70100081F
:10012000E7010008E7010008E7010008E70100080F
:1001300000F002F800F03AF80AA090E8000C8244BF
:100140008344AAF10107DA4501D100F02FF8AFF29C
:10015000090EBAE80F0013F0010F18BFFB1A43F0A5
:10016000010318474C1500006C150000103A24BF1D
:1001700078C878C1FAD8520724BF30C830C144BF0C
:1001800004680C607047000000230024002500264E
:10019000103A28BF78C1FBD8520728BF30C148BFEA
:1001A0000B6070471FB51FBD10B510BD00F033F8D0
:1001B0001146FFF7F7FF01F009F800F051F803B41A
:1001C000FFF7F2FF03BC00F0F7FF0000094880478B
:1001D00009480047FEE7FEE7FEE7FEE7FEE7FEE729
:1001E000FEE7FEE7FEE7FEE704480549054A064B41
:1001F00070470000350E000831010008680100203A
:1002000068070020680300206803002070477047DB
:10021000704770477047754600F02CF8AE460500F1
:100220006946534620F00700854618B020B5FFF711
:10023000DBFFBDE820404FF000064FF000074FF015
:1002400000084FF0000B21F00701AC46ACE8C009F4
:10025000ACE8C009ACE8C009ACE8C0098D467047FD
:1002600010B50446AFF300802046BDE81040FFF70C
:10027000A6BF0000004870470401002000BFFEE751
:10028000002904DA4A4211B22D22027001E0202234
:100290000270642291FBF2F23032D3B2421C10465B
:1002A0001370642291FBF2F302FB13110A2291FBFB
:1002B000F2F23032D3B2421C104613700A2291FB84
:1002C000F2F302FB131101F13002D3B2421C1046CB
:1002D00013707047704701B509E0002000E0401C32
:1002E0004CF250318842FAD30099491E009100998E
:1002F0000029F2D108BD00000549096821F010016C
:10030000034A1160114609680143116070470000FB
:100310000020024001460020034A106800F0380027
:1003200008431060704700000020024008B501211A
:100330003C2000F0CBF94FF40070ADF8000018201D
:100340008DF8030003208DF802006946074800F08D
:100350000FF84FF48060ADF8000004208DF8030022
:100360006946024800F004F808BD0000000801409A
:100370002DE9F0410246002500260020002300243C
:10038000002791F803C00CF00F0591F803C00CF0A2
:10039000100CBCF1000F03D091F802C04CEA050527
:1003A00091F800C0BCF1000F31D0146800202BE0A0
:1003B0004FF0010C0CFA00F3B1F800C00CEA030690
:1003C0009E4220D183004FF00F0C0CFA03F7BC4380
:1003D00005FA03FC4CEA040491F803C0BCF1280FB1
:1003E00006D14FF0010C0CFA00FCC2F814C00AE070
:1003F00091F803C0BCF1480F05D14FF0010C0CFA85
:1004000000FCC2F810C0401C0828D1D31460B1F819
:1004100000C0BCF1FF0F34DD546800202EE000F175
:10042000080C4FF0010808FA0CF3B1F800C00CEA10
:1004300003069E4221D183004FF00F0C0CFA03F704
:10044000BC4305FA03FC4CEA040491F803C0BCF178
:10045000280F05D100F1080C08FA0CF8C2F8148036
:1004600091F803C0BCF1480F07D100F1080C4FF020
:10047000010808FA0CF8C2F81080401C0828CED3F6
:100480005460BDE8F08100BFFEE7000008B54020E1
:10049000ADF8000003208DF8020014208DF8030051
:1004A00069460848FFF764FF8020ADF8000003208C
:1004B0008DF8020014208DF8030069460148FFF70B
:1004C00057FF08BD000C014000B540200A490860F4
:1004D00000F0D6F880200849091F086000F0D0F825
:1004E00040200549091F086000F0CAF84020024971
:1004F000086000F0C5F800BD140C014000B50823E9
:10050000002280201149086014E05006020E4020AD
:100510000E49091D086000F0B3F840200B4908603F
:1005200000F0AEF809480838006800F0800008B113
:1005300042F00102181EA3F10101CBB2E5D1402027
:100540000249091D0860104600BD0000100C014062
:1005500000B50246082319E040201149086000F068
:100560008FF802F0800020B180200D49091F08603B
:1005700002E080200A4908605006020E00F080F870
:1005800040200749091F086000F07AF8181EA3F1FF
:100590000101CBB2E0D140200149086000BD00005C
:1005A000140C014000B58020134908604020086009
:1005B00000F066F810480838006808B9012000E02B
:1005C000002000F0800008B1002000BD80200A4912
:1005D000091D086000F054F807480838006800F06A
:1005E000800008B10020F0E780200349091D086061
:1005F00000F046F80120E8E7100C014000B540206B
:100600000A49086000F03CF880200849086000F0C2
:1006100037F840200549091F086000F031F88020B4
:100620000249091F086000F02BF800BD140C0140BE
:1006300000B540201149086000F022F880200F49E1
:10064000091F086000F01CF840200C49091F0860D1
:1006500000F016F809480C38006800F0800030B14E
:1006600040200649086000F00BF8002000BD402043
:100670000249086000F004F80120F7E7140C01407B
:100680001E2001E0411EC8B20028FBD1704700B512
:1006900000226B21D02000F0A9FB07221921D020D5
:1006A00000F0A4FB06221A21D02000F09FFB1822A4
:1006B0001B21D02000F09AFB01221C21D02000F049
:1006C00095FB00BD00BFFEE77047704729B1064AA1
:1006D00092690243044B9A6104E0034A926982439F
:1006E000014B9A61704700000010024010B500F005
:1006F00047F84FF4803000F005F900F061F91F4928
:10070000087008460078012826D1002000F0EEF895
:10071000002000F029F94FF4806000F019F9022060
:10072000FFF7F8FD1020FFF7E7FD4FF4E0114FF45D
:10073000803000F02BF9012000F022F900BF3920B1
:1007400000F0AEF80028FAD0022000F02DF900BF2A
:1007500000F0C4F80828FBD101210C20FFF7B6FFF8
:1007600001213020FFF7B2FF0121C020FFF7AEFFCB
:10077000012140F20110FFF7A9FF10BD0400002085
:100780000F48006840F001000D49086008464068C5
:100790000C4908400A494860084600680A49084070
:1007A000074908600846006820F480200860084671
:1007B000406820F4FE0048604FF41F0088607047D6
:1007C000001002400000FFF8FFFFF6FE30B50021E8
:1007D0000022002400232D4D6D6805F00C0121B18D
:1007E000042905D0082923D105E0294D056022E020
:1007F000274D05601FE0254D6D6805F47012234DEF
:100800006D6805F48034022505EB92421CB9214D38
:10081000554305600BE01D4D6D6805F400351DB1B5
:100820001C4D5543056002E0194D5543056002E03B
:10083000174D056000BF00BF144D6D6805F0F00155
:100840000909154D6B5C0568DD4045600F4D6D680D
:1008500005F4E061090A104D6B5C4568DD40856078
:100860000A4D6D6805F46051C90A0B4D6B5C456813
:10087000DD40C560054D6D6805F44041890B074DAD
:100880006B5CC568B5FBF3F5056130BD0010024037
:1008900000127A0000093D001A0000202A00002002
:1008A00010B501460022002300204A11012A02D17E
:1008B000094C236806E0022A02D1074C236A01E0B2
:1008C000054C636A01F01F02012494401C400CB1E6
:1008D000012000E0002010BD0010024002484068E6
:1008E00000F00C007047000000100240014600209C
:1008F000034A506820F0F000084350607047000041
:10090000001002401149096821F480310F4A11603A
:100910001146096821F480211160B0F5803F03D0B1
:10092000B0F5802F0ED106E00849096841F4803106
:10093000064A116007E00549096841F4A021034A0D
:10094000116000E000BF00BF7047000000100240CF
:1009500001460020034A506820F4E06008435060DC
:10096000704700000010024001460020034A506812
:1009700020F4605040EAC10050607047001002400F
:10098000014908667047000000004242024600200C
:10099000044B586820F47C1042EA01031843014BD1
:1009A000586070470010024001460020034A50681A
:1009B00020F0030008435060704700000010024020
:1009C00038B5002000900024002500BF3120FFF73B
:1009D00067FF05460098401C00900098B0F5A06F96
:1009E00001D0002DF2D03120FFF75AFF08B10124C9
:1009F00000E00024204638BD00B53C21D02000F0A6
:100A0000C7F92A4908703B21D02000F0C1F92749D5
:100A1000487008460078497840EA012000B224492D
:100A200008800846B0F90000A42190FBF1F000B264
:100A30001F4908803E21D02000F0AAF91B49887088
:100A40003D21D02000F0A4F91849C87008468078EC
:100A5000C97840EA012000B2164908800846B0F97A
:100A60000000A42190FBF1F000B21249088040215F
:100A7000D02000F08DF90D4908713F21D02000F001
:100A800087F90A49487108460079497940EA012006
:100A900000B2094908800846B0F90000A42190FB83
:100AA000F1F000B20449088000BD000030000020D1
:100AB0000A0000200C0000200E0000202DE9F0416B
:100AC0004421D02000F064F9364908704321D02039
:100AD00000F05EF93349487008460078497840EAEA
:100AE000012000B2304908800846B0F9000000F04B
:100AF00074FD06464FF066322C4B00F0E7FB0446CF
:100B000000F03CFD00B2284908804621D02000F0CA
:100B10003FF9244988704521D02000F039F9214956
:100B2000C87008468078C97840EA012000B22049A0
:100B300008800846B0F9000000F04FFD06464FF06F
:100B400066321A4B00F0C2FB044600F017FD00B2FB
:100B5000174908804821D02000F01AF9114908717E
:100B60004721D02000F014F90E4948710846007959
:100B7000497940EA012000B20E4908800846B0F9E0
:100B8000000000F02AFD06464FF06632074B00F0E9
:100B90009DFB044600F0F2FC00B206490880BDE867
:100BA000F0810000300000200A000020666630401E
:100BB0000C0000200E00002000B502223721D020BA
:100BC00000F014F90A20FFF786FB01220A21182001
:100BD00000F00CF90A20FFF77EFB0321182000F03B
:100BE000D7F81C4908700421182000F0D1F81949E1
:100BF000487008460078497840EA012000B216495A
:100C000008800521182000F0C3F8124988700621D9
:100C1000182000F0BDF80F49C87008468078C978E0
:100C200040EA012000B20D4908800721182000F099
:100C3000AFF8084908710821182000F0A9F8054903
:100C4000487108460079497940EA012000B2044918
:100C5000088000BD300000200A0000200C000020A9
:100C60000E0000207047000070B506460D46304665
:100C700000F092F9284600F08FF93A2000F08CF944
:100C8000002405E00749085D00F086F9601CC4B245
:100C9000042CF7DB202000F07FF9202000F07CF905
:100CA00070BD00000500002010B500F001F810BD77
:100CB0000CB50020019000903348006840F480306B
:100CC0003149086000BF3048006800F400300090EF
:100CD0000198401C0190009818B90198B0F5A06FD8
:100CE000F1D12948006800F4003010B101200090D3
:100CF00001E0002000900098012843D123480068BB
:100D000040F01000214908600846006820F0030008
:100D100008600846006840F0020008601A48406811
:100D2000194948600846406848600846406840F4F1
:100D3000806048600846406820F47C10486008469F
:100D4000406840F4E81048600846006840F0807051
:100D5000086000BF0C48006800F000700028F9D05F
:100D60000948406820F00300074948600846406889
:100D700040F00200486000BF0348406800F00C00EB
:100D80000828F9D10CBD00000010024000200240EC
:100D900070B504460D46FFF705FC08B9002070BD8C
:100DA0002046FFF7D5FBFFF743FC30B9FFF726FCE1
:100DB00001200D4908700020F1E72846FFF7C8FB25
:100DC000FFF736FCFFF7EEFB611CC8B2FFF7C0FB74
:100DD000FFF72EFCFFF792FB0646FFF775FBFFF7C8
:100DE0000DFC3046DBE700000900002070B5064628
:100DF0000C461546FFF7D6FB08B9002070BD3046FB
:100E0000FFF7A6FBFFF714FC18B9FFF7F7FB00206C
:100E1000F4E72046FFF79CFBFFF70AFC2846FFF7A4
:100E200097FBFFF705FCFFF7E9FB00F0C8F901208D
:100E3000E4E7704710B51348006840F0010011491D
:100E4000086008464068104908400E494860084656
:100E500000680E4908400B4908600846006820F405
:100E6000802008600846406820F4FE0048604FF487
:100E70001F008860FFF718FF4FF00060044908600A
:100E800010BD0000001002400000FFF8FFFFF6FE5A
:100E900008ED00E000B587B001214FF49040FFF766
:100EA00015FC0020ADF80400ADF806004FF400700A
:100EB000ADF808000020ADF80A0001A9134800F0C1
:100EC00080F84FF4E13003900020ADF81000ADF849
:100ED0001200ADF81400ADF818000C20ADF81600A3
:100EE00003A90A4800F0DAF840F22551074800F05B
:100EF0005FF8012240F22551044800F0A9F80121D1
:100F0000024800F06FF807B000BD00000038014053
:100F100010B540F225511D4800F070F810B31B4881
:100F200000F028F9C4B21A48008800F40040C8B99B
:100F30001748008800F4804060B10A2C03D00020DC
:100F40001349088020E01248008840F4004010490E
:100F5000088019E00D2C06D10D48008840F480402F
:100F60000B49088010E00A480088C0F30D000949C9
:100F70000C5407480088401C054908800846008832
:100F8000C72801DD0020088010BD000000380140A6
:100F9000180000203A00002010B5044621460348FE
:100FA00000F0EDF80120FFF796F910BD0038014080
:100FB00001F40072B2F5007F00D100BFCA43028085
:100FC000704710B502460020108A4FF2FF03184008
:100FD0000B884C8823438C882343CC8823431843B5
:100FE000108210BD21B1828942F40052828104E056
:100FF00082894DF6FF731A408281704770B50246B0
:10100000002400230025002040F66A16B14200D1DA
:1010100000BFC1F3421501F01F03012606FA03F3D6
:10102000012D02D19689334006E0022D02D1168AA5
:10103000334001E0968A33400C12012606FA04F48C
:101040001688344013B10CB1012000E0002070BDBF
:10105000F0B50346002400260025002040F66A175C
:10106000B94200D100BF1846C1F3421401F01F0677
:10107000012707FA06F5012C01D10C3004E0022CFF
:1010800001D1103000E014301AB107682F43076017
:1010900002E00768AF430760F0BD00002DE9F047AC
:1010A00086B005460E460024A24600BFA146002792
:1010B000B08900B100BF2F462C8A4CF6FF70044067
:1010C000F08804432C82AC894EF6F3100440B088BB
:1010D00031890843718908430443AC81AC8A4FF6D7
:1010E000FF400440B0890443AC8201A8FFF76EFBC7
:1010F0001F48874202D1DDF810A001E0DDF80CA006
:10110000A88900F4004040B10AEBCA0000EB0A10C5
:1011100031684900B0FBF1F807E00AEBCA0000EBC8
:101120000A1031688900B0FBF1F86420B8FBF0F0D8
:1011300004012009642101FB1089A88900F4004002
:1011400040B1322000EBC900B0FBF1F000F0070025
:10115000044308E0322000EB09106421B0FBF1F0F9
:1011600000F00F0004432C8106B0BDE8F0870000BA
:101170000038014001468888C0F308007047C1F379
:1011800008028280704700BFFEE70000002001498E
:1011900008607047082C004010B5502000F004F89B
:1011A000FFF7F4FF10BD000000F07F01014A11605D
:1011B00070470000002C0040014600BF704741F21C
:1011C000883000E0401E0028FCD17047FFF78EFAFF
:1011D000FFF7ACF8FFF75EFEFFF758F90A20FFF7BC
:1011E0007AF8FFF754FA68E0FFF706FC3348B0F9E5
:1011F00000103348FFF744F858214120FFF734FD31
:101200003048B0F900102E48FFF73AF85921412034
:10121000FFF72AFD2C48B0F900102948FFF730F8F5
:101220005A214120FFF720FDFFF748FC2348B0F981
:1012300000102348FFF724F858214720FFF714FD3A
:101240002048B0F900101E48FFF71AF8592147202E
:10125000FFF70AFD1C48B0F900101948FFF710F815
:101260005A214720FFF700FDFFF7A6FC1348B0F90D
:1012700000101348FFF704F858214D20FFF7F4FC45
:101280001048B0F900100E48FEF7FAFF59214D2022
:10129000FFF7EAFC0C48B0F900100948FEF7F0FF30
:1012A0005A214D20FFF7E0FC0D20FFF775FE0A20C4
:1012B000FFF772FE0120FFF70EF895E70A00002005
:1012C000050000200C0000200E0000202DE9C04188
:1012D00030B4DFF8A0C23CEA111418BF3CEA131482
:1012E00000F0EC8081EA03051CEA111444EAD5748D
:1012F00018BF1CEA131500F0C780A4EB05044FF0DB
:10130000004545EAC12145EAC32341EA505143EA79
:10131000525304F17F74994204F500344FEAC0201F
:101320004FEAC22208BF904200F09C804FEA13654A
:101330000FF24016765D4FEA134506FB05F7C7F13D
:10134000807706FB07F74FEAD737A7FB036876429B
:10135000C8F58038A7FB06CE38BFA8F1010807FB07
:1013600008E64FF0000EA6FB028CE6FB03CEDCF194
:10137000000CCEF1004E38BFAEF1010EA6FB0C58AA
:101380004FF000074FF00005E6FB0E87A1FB08C6F3
:10139000A0FB07CE16EB0E0645F10005E1FB076545
:1013A00015F1E04E7EBFA4F580345FEA46066D413C
:1013B00016F1800745F100054FEA17274FEA066648
:1013C00047EA0567A6F1DE46B6F1805F4FEA1525CC
:1013D0001FD9384624F0010C05EBC471BCF1FE6F37
:1013E00001EB0C1102D8F0BCBDE8008124425CBFC7
:1013F00001F5801E9EEAC47F02D4F0BCBDE80081E6
:10140000244238D4F0BCA1F1C041BDE8004100F055
:1014100049B94FEAD22242EA43524FEAD323A7FB0B
:1014200002864FEAD02040EA415007FB03661EEADD
:101430000E0F4FEAD12105FB026658BFA6EB0056FE
:10144000B6EB00564FEA520E4EEAC37E18EB0E0E74
:1014500056EB530EBDD518EB02085E417F1C55F1CB
:101460000005B6E74FF480154FF000074FF0000677
:101470004FF00008ADE7F0BC4FF0000001F1C041B3
:1014800001F00041BDE8008111EA0C1F0CEA1315C0
:1014900000D00CE013EA0C1F00F025804FF0000094
:1014A000F0BC81EA030101F00041BDE80081F0BC1D
:1014B000BDE8004181EA030100F0F4B8F0BCBDE8EA
:1014C000004170B500F0A0F8097EFC3E00F007B8BE
:1014D00081EA03014FF0000001F00041704781EA0A
:1014E000030100F0DFB8F0BCBDE800414FF00000A0
:1014F00021497047FFFDFBF9F7F5F4F2F0EEEDEB53
:10150000E9E8E6E4E3E1E0DEDDDBDAD8D7D5D4D301
:10151000D1D0CFCDCCCBCAC8C7C6C5C4C2C1C0BF4D
:10152000BEBDBCBBBAB9B8B7B6B5B4B3B2B1B0AF53
:10153000AEADACABAAA9A8A8A7A6A5A4A3A3A2A137
:10154000A09F9F9E9D9C9C9B9A99999897979695F2
:1015500095949393929191908F8F8E8E8D8C8C8B8E
:101560008B8A898988888787868585848483838216
:10157000828181800000FF070000F87F4FEA41036D
:101580004FEA5353A3F58063D3F11E03C8BFD3F1D1
:10159000210C0CDD4FF0004242EAC12242EA5052D7
:1015A00032FA03FC8CEAE17CACEBE1707047102B63
:1015B000C4BF0020704703F5787CBCF1FF3F04D026
:1015C0006FF0004282EA2100704770B500F01CF80D
:1015D0004992248000207047F2E710F0004248BF93
:1015E0004042B0FA80F310FA03F10AD0C3F11D03B0
:1015F00003F580634FEA415002EB035202EBD12125
:1016000070474FF0000070470EF1020E2EF0030EEF
:101610005EF8046B364205D4012A43EB030515F549
:10162000001F12D8012841EB010C1CF5001F0CD83B
:101630000ED14FEAD17C15F5001F0CEB4C0C0CF1D0
:10164000020C08BF4CEBD37C04E04FF0080C01E027
:101650004FEAD37C0CEB4C0526FA05F606F007069C
:10166000B6F1040C06D20EEB860CBDE870404CF0CF
:10167000010C6047DFE80CF0090B02024FF000415B
:101680004FF00000A1F5002170BD19461046012859
:1016900051EB010418BFD4F5001484BF002001F001
:1016A000004170BD0808A0F500114FEA31017047F4
:1016B000D016000800000020300000006C01000877
:1016C00000170008300000203807000088010008DB
:1016D000000000000000000000000000000000000A
:1016E00000000000000000000000000000000102F7
:1016F00003040102030406070809020406080000A7
:04000005080001CD21
:00000001FF
